:020000041000EA
:10000000002008205D01001013010010312C0110A8
:100010001101001011010010110100101101001058
:100020001101001011010010110100101701001042
:100030001101001011010010190100101B01001026
:100040001D0100101D0100101D0100101D010010F8
:100050001D0100101D0100101D0100101D010010E8
:100060001D0100101D0100101D0100101D010010D8
:100070001D0100101D0100101D0100101D010010C8
:100080001D0100101D0100101D0100101D010010B8
:100090001D0100101D0100101D0100101D010010A8
:1000A0001D0100101D0100101D0100101D01001098
:1000B0001D0100101D0100101D0100101D01001088
:1000C0001D0100101D0100101D0100101D01001078
:1000D0001D0100101D0100101D0100101D01001068
:1000E0001D0100101D0100101D0100101D01001058
:1000F0001D0100101D0100101D0100101D01001048
:100100001D0100101D0100101D0100101D01001037
:1001100000BE00BE00BE00BE00BE00BEEFF3058004
:10012000103800BEF2EB887170E4011098E4011001
:10013000A801001090A31AE7D3DEFFFF42012110AF
:10014000FF010000C0150200793512AB4FF000002E
:100150002049086006C881F3088810474FF05040D6
:10016000006810B14FF00000F2E70FA40ECC002998
:1001700002D000F015F8F9E71749184A002000E00E
:1001800001C19142FCD1002080F30A8814498847BC
:10019000144988471449884700BEFDE701C901C2D8
:1001A0009A42FBD3704700BF98E4011088010020F9
:1001B000E8330020F8160210000008200000082094
:1001C000F81602100010082000100820000000009F
:1001D0007047000008ED00E0E8330020884D002063
:1001E000295A001099050010ED590010F8B500BF0C
:1001F0000348044B834202D0034B03B118477047B6
:10020000E8330020E833002000000000064B0749D7
:10021000C91A891048BF0131491003D0044B0BB1F2
:1002200001481847704700BFE8330020E83300203A
:100230000000000010B5064C237843B9FFF7D8FF43
:10024000044B13B10448AFF300800123237010BDA9
:10025000603C00200000000098AD011008B5044B80
:100260001BB104490448AFF30080BDE80840CDE766
:1002700000000000643C002098AD01100120014BFB
:10028000187070477A4D00202DE9F04FB7B00EF08E
:10029000A5FC18B99C4805F075FDFEE79B490122B5
:1002A0009B480BF0F5FF9B4C0146207018B19A4813
:1002B00005F0EAFDFEE7994D0A22284698490CF020
:1002C0008FF82070E0B9974928460DF045FDDFF81A
:1002D000A08200280146C8F8000016DB28460DF071
:1002E000CBF801462070B8B98D49012228460CF0A0
:1002F00077F80146207098B18B4805F0C5FDFEE700
:100300000146894805F0C0FDFEE7884805F0BCFDC0
:1003100028460DF0B1F8FEE7854805F0B5FDFEE78B
:100320007F49844805F0B0FD834805F02BFD834EDE
:1003300002E0304605F0A8FD2A46642130460DF063
:1003400027FB0028F5D17E4805F01CFD73480DF011
:1003500093F80146207018B1754805F095FDFEE749
:100360006F490A226D480CF03BF80146207018B125
:100370006D4805F089FDFEE7724968480DF0ECFC18
:1003800003466648C8F800300DF076F80146207044
:1003900018B1674805F078FDFEE76B4808F012F9E0
:1003A0006A4813F05FF80146694805F06DFDDFF813
:1003B000C4B1DFF8C4A1674F674EDFF8609108F061
:1003C00009F943F239039842F9D101238BF800303F
:1003D000624B1222484652499B6A0CF001F8207089
:1003E000002840F08680D5E9042348460DF078F8CF
:1003F000B36BC8F800002193736B4846209396F8BE
:10040000303057491C9396F820301893DAE90223CC
:10041000CDE92E23CDE92A23524BD3E90023CDE9A0
:100420003423514BD3E90023CDE932234F4BD3E999
:100430000023CDE93023DAE90423CDE92C23DAE9DE
:100440000023CDE92823D6E91423CDE92623D6E9D4
:100450001223CDE92423D6E91023CDE92223D6E9BE
:100460000A23CDE91E23D6E90623CDE91A23D6E9CE
:100470000223CDE91623D7E91023CDE90C23D7E9D0
:100480000E23CDE90A23D7E90C23CDE90823D7E9C8
:100490000A23CDE90623D7E90823CDE90423D7E9C8
:1004A0000423CDE90223D7E90223CDE90023D6E9CD
:1004B0000423CDE91423D7E91623CDE91223D7E984
:1004C0001423CDE91023D7E91223CDE90E23D7E970
:1004D00000230DF041FC0028C8F800004EDB484620
:1004E0000CF0CAFF207048B91C4B8BF800009B6AC7
:1004F00065E701460C4805F0C7FCFEE701460C48DD
:1005000005F0C2FCFEE700BF98AD0110C0AD0110C0
:10051000403900207B4D0020C4AD0110E0360020A2
:100520004028002014AE0110F0AD01101CAE0110E7
:1005300044AE011068AE011084AE0110FC450020ED
:100540008CAE011094AE01109F860100000008409F
:10055000A0AF0110B03B0020F834002000000B4099
:10056000B4AF011048280020303C0020F0340020B7
:10057000F44C00207E4D0020383C0020014603480A
:1005800005F082FC02480CF077FFFEE71CAE01107C
:10059000E0360020000000002DE9F04F01222DED93
:1005A000048B002400258BB01146A148CDE90645F7
:1005B000CDE9084502F04EFA9E4805F065FC05F0CD
:1005C0009DFB9D4800F040FE9C4A9D499D4800F0DF
:1005D0005FFF9A4A9C499B4800F05AFF032108207C
:1005E00001F0B6FE0321092001F0B2FE03210E2026
:1005F00001F0AEFE03210F2001F0AAFE002201212E
:10060000082001F0C3FE00220121092001F0BEFEF6
:10061000002201210E2001F0B9FE002201210F204D
:1006200001F0B4FE4FF4FA7002F000FE874805F0C6
:10063000A9FB192001F0DCFE19264FF0010343EC61
:100640004460834805F09EFB824B1B7843EC40607E
:100650004FF4FA7002F0EAFD7B497F4801F0EEFBAF
:100660007E4805F08FFB642002F0E0FD76497C486F
:1006700001F05EFA7B4805F085FB642002F0D6FDB0
:10068000794805F07FFB6E49784801F067FD7848AE
:1006900005F078FB642002F0C9FD764805F072FB96
:1006A000642002F0C3FD0821734805F0EDFB08212A
:1006B000724805F0E9FB6021714805F0E5FB4FF059
:1006C000640A26462F46DFF88091DFF89481494678
:1006D00006AB08AA404601F07BFADDE90623304666
:1006E000394603F011FBDDE9082306460F46204694
:1006F000294603F009FBBAF1010A04460D46E6D18A
:100700003046394648A7D7E9006700225D4B03F021
:1007100049FB0022CDE906015A4B2046294603F049
:1007200041FB0B46024601255748CDE9082305F059
:10073000ABFBDDE90623554805F0A6FB08234FF483
:10074000165253495348009500F0C4FF044640F642
:10075000B83002F06BFD214642F6E0624E4805F0EB
:1007600093FB02F0EDFB4D4B4D4ACDE901A3009206
:1007700000234C4A02F0CEFD284603F075F80446EB
:10078000494805F0FFFA2146484805F07DFB4648F8
:1007900005F0F8FA464807F06FFF07F01BFF4549E0
:1007A000454805F071FB4FF00008DFF8249116E092
:1007B000294600222046414B03F0BCFB014640483D
:1007C000002900F0878022462B46CDF800A005F0D6
:1007D0005BFB40F6B83002F029FD0AF1010A394B03
:1007E000174903F110020092204803F1080201F0BA
:1007F00043FD35493246D1E902013B4603F0ACFAEC
:1008000042464B4604460D4603F0D0FB0028CFD0AD
:1008100022462B46CDF800A02C4805F035FB40F6CB
:10082000B83002F003FDD8E78DEDB5A0F7C6B03EB5
:10083000EC40002028B001102C4B0020801A06004C
:10084000582C0020E44A0020502C002030B0011029
:1008500038B0011051280020AC3F002044B00110F6
:10086000C440002054B0011064B00110C04000200A
:1008700068B0011078B0011084B0011094B001107C
:10088000A4B0011000005940B4B00110CCB0011068
:1008900000000740504D0020E8B00110183C002037
:1008A0007D020010A086010014B101101CB10110DE
:1008B000890200109F86010030B101100000254020
:1008C00064B10110B83B0020B03B00203CB10110E6
:1008D00000002B402B460FF2801BDBE900AB2246C9
:1008E0005F48059105F0D0FA05999FED578B0D46AD
:1008F0005C4EDFF890815C4F0024204603F0AEFA96
:100900008DED028B02460B463046CDE900AB00F080
:1009100043FD02460B463046294600F06DFD294650
:10092000404605F0B1FA2146384605F0ADFA0134EB
:10093000322002F07BFC142CDFD1204603F08EFA2B
:100940008DED028B02460B463046CDE900AB00F040
:1009500023FD02460B463046294600F04DFD294650
:10096000404605F091FA2146384605F08DFA3220CE
:1009700002F05CFC013CE0D24FF4FA70013502F069
:1009800055FC042DB8D1394805F0FCF9384805F07C
:100990007BFA00240025DFF8F0A0DFF8F0B0354B3B
:1009A0001B78D3B9344BD3E9000129A3D3E9002341
:1009B00003F0AEFA8046F0B9DAF80030012B67DCBC
:1009C0002E2005F09DF94FF49670CAF8008002F0D1
:1009D0002DFC284B1B78002BE4D0584601F068F81A
:1009E000254BC3E900011AA3D3E9002303F090FAD1
:1009F00080460028E0D016A3D3E900231F4805F065
:100A000043FADAF800301E480133CAF8003005F026
:100A1000B9F902E0642002F009FC584601F048F8F8
:100A200080468946144E22462B46C6E9008903F0CB
:100A30006FFA0028EED0DAF800300133CAF800303F
:100A4000ADE700BFAFF30080666666666666EE3FA0
:100A500000000000801CC8409A9999999999E13F3B
:100A600088B101102C4B0020B0B10110C0B10110B1
:100A7000D4B1011050280020583C0020DCB10110F6
:100A8000ECB10110A0B10110444D00206C4D0020CC
:100A9000854CD4E8AF3FDA0740F1A283834CD4E819
:100AA000AF3FDB0740F19083DFF868A2804CDFF8AE
:100AB00068B2804B1B78B3B100237E4A13707E4A24
:100AC000137883F001031370192243EC40207B4B11
:100AD0009B78472B00F022819AF800303BB9754B88
:100AE0001B78002BE8D19AF80030002BFBD0744B18
:100AF000744D9A6A9B6A02F0B7FC05F12803C5E9B8
:100B00000001A3F1080259466F4801F061F805F1B0
:100B10003803A3F1080202F1100100916B48594615
:100B200001F088FA05F15003A3F1080202F1100167
:100B300000916648594601F0C7FA05F1080303F130
:100B4000080202F1080662496248009601F094FB2F
:100B50004BA3D3E90023D5E9020103F0FDF80022FD
:100B60005D4B03F0E7F90546002840F098825B4BA7
:100B70001B78002B40F046819FED437B584B57EC90
:100B8000176B83ED007BDDE906234E49554DD1E916
:100B90000A0103F0CDF83EA3D3E9002303F002F9E4
:100BA0000022514B03F0D8F802460B463046C5E907
:100BB0000023394603F0BCF80B4602464B4DC5E90D
:100BC00000234B4B1B78002B00F059810FF2C80912
:100BD000D9E9008900259FED328B354F454E8DEDCB
:100BE000028BCDE90089F7E80223304600F0D4FB00
:100BF00002460B4630462946013500F0FDFB042D28
:100C0000EDD13B4B19783C4805F03EF934490022C0
:100C1000D1E90001394B03F09FF80B4638490246F1
:100C2000D1E900673748CDE9006705F02DF92D4976
:100C30000022D1E90001314B03F08EF80B46024649
:100C4000314805F021F9D4E90623CDE900232F48E6
:100C5000D4E9022305F018F9D4E90423CDE90023EF
:100C60002B48D4E9002305F00FF943F2390007F0CF
:100C7000A9FC00238AF800301BE700BFAFF3008017
:100C80008DEDB5A0F7C6B03E0000000000000000EA
:100C90000000000000A88F409A9999999999E13F26
:100CA000666666666666EE3FD0400020CC40002057
:100CB000383C0020804D002051280020304B00207F
:100CC00000000B40B03B0020C4400020AC3F00209F
:100CD000582C0020C0400020000025405028002053
:100CE000303C0020F034002000002440D0360020AA
:100CF000754D00202C4B0020FCB201100000594023
:100D0000482800200CB3011038B3011050B3011073
:100D100084B301107A4D0020502C0020AC4BDB78BE
:100D2000472B7FF4D9AEAA4B1B79412B7FF4D4AE6D
:100D3000A84813F043FCA84DC5E90401A74813F0E7
:100D40003DFC0022A64B03F02DF88946804603F0B7
:100D5000A9F803F083F806460F4632463B46404664
:100D6000494602F0E5FF00229E4B03F01BF8324695
:100D70003B4602F0C9FF964BC5E9060193F82D30BA
:100D8000994885F8203013F019FC02460B46C5E956
:100D90000A230022924B03F005F88946804603F0AF
:100DA00081F803F05BF806460F4632463B46404664
:100DB000494602F0BDFF00228A4B02F0F3FF3246A3
:100DC0003B4602F0A1FF824BC5E9060193F84B3088
:100DD000864885F8303015F053FF6863844815F075
:100DE0004FFFA863834813F0E9FBC5E9100182486F
:100DF00013F0E4FBC5E91201804813F0DFFBC5E9FD
:100E0000140169E67E4800F053FE0B4602467D4E13
:100E1000C6E9002303F046F87B4B984200F01081AE
:100E20007A4B984200F08D80794B984240F0AD802B
:100E30000FF2841BDBE900AB0FF28419D9E90089BA
:100E40009FED618B734E744C00220023CDE902AB01
:100E5000CDE900892046A6EC028B00F09DFA0246FF
:100E60000B4620462946013500F0C6FA042DEBD189
:100E7000644B6A48D3E9002305F006F8FEE7684BA7
:100E8000D3E9002302F068FF0022664B06460F46B6
:100E900003F050F8002840F0FF8030463946002229
:100EA0004F4B03F083F808B100264D4F9FED467B72
:100EB0000FF20C19D9E90089CDE900673246C4E97F
:100EC0000267C4E906673B4684ED047B84ED007B42
:100ED000554804F0D9FFD4E90423CDE90023D4E92F
:100EE00000234C4C514804F0CFFF002527469FEDCE
:100EF000328B494E8DED028BCDE90089D7E9002375
:100F0000304600F049FA02460B463046294600F0CA
:100F100073FA8DED028BCDE90089F7E802233046A4
:100F200000F03AFA02460B4641482946013504F0E2
:100F3000ABFF042DDED13F4B197800293FF463AE9F
:100F400044E601230FF27809D9E900899FED1E9B41
:100F50009FED198B374A2F4F2F4E13708DED028B5B
:100F600000220023CDE900893046A7EC029B00F067
:100F700013FA02460B4630462946013500F03CFA8A
:100F8000042DEBD12C4804F0FDFE2A4B1D4A1B78A2
:100F9000D2E90067002B55D03046394600220023A5
:100FA00003F004F8002840F0E780244BD3E9006701
:100FB000E9E500BFAFF30080666666666666EE3FF1
:100FC0009A9999999999E13F00000000000000006A
:100FD000304B00203F4B0020F83400204E4B0020C7
:100FE0000000594000004E406C4B00208A4B00200E
:100FF000994B0020A84B0020B74B0020D54B002078
:101000006C4D0020583C002048DDFFFFA9FBFFFF8E
:10101000F1D8FFFF383C00202C4B002034B20110E7
:1010200048280020000059C080B20110B4B201105D
:10103000ECB20110754D002048B20110303C002088
:10104000754B1D70754B0022D3E9006700233046B5
:10105000394602F0ABFF002840F085803046394623
:101060000022002302F066FF00289ED062A3D3E98D
:1010700000233046394602F099FF002895D0684891
:1010800000F016FD0246674BD3E9006701F100430B
:101090006549C1E9002376E50026644F06E7002490
:1010A0000FF25C1BDBE900AB0FF25C19D9E9008998
:1010B00000265F4D5F4F32463B462846CDE902ABE6
:1010C000CDE9008900F052F902460B462846214638
:1010D000013400F091F9042CEDD14DA3D3E90023A4
:1010E00055494FF00107D1E9020102F035FE0246F1
:1010F0000B46524804F0C8FE4FF0000619240325A1
:1011000047EC4040C82002F091F846EC4040C8202F
:1011100002F08CF8013DF3D1642002F087F803253A
:1011200047EC40404FF4C87002F080F846EC404075
:101130004FF4C87002F07AF8013DF1D1642002F05A
:1011400075F8032547EC4040C82002F06FF846ECE4
:101150004040C82002F06AF8013DF3D14FF47A70A4
:1011600002F064F8CBE72E4800F0A2FC06460F46DA
:101170002C4BC3E9006706E53946304602F092FE83
:101180004FF47A7890FBF8F508FB05F002F066FE64
:1011900002460B463046394602F0CAFD02F082FE96
:1011A00090FBF8F303FB180002F058FE0B460246D2
:1011B00004EBC50629462248C6E9002304F064FE74
:1011C000184BD3E90067DEE4204612F07FF90028CF
:1011D0003FF46AAC1B4B20469B6A12F093F963E420
:1011E000204612F073F900283FF458AC154B204606
:1011F0009B6A12F087F951E40000000000407FC0B4
:10120000666666666666EE3F9A9999999999E13F96
:101210008DEDB5A0F7C6B03E754D0020583C0020BE
:101220006C4D0020303C002048280020000059C0B0
:101230002C4B00200000E03FB03B00200CB201101E
:101240005CB2011000000B402DE9F843042102209C
:1012500001F07EF80421032001F07AF80421062031
:1012600001F076F80421072001F072F89FED387B39
:1012700047F230584FF00009374E002547F2305101
:10128000A022012386ED007B86ED067BC6E902895C
:10129000C6E90889314C324F6561E56125626162BA
:1012A000A26163616561E56125626162A26163615A
:1012B000E5636564A564E1642264E363E5636564F2
:1012C000A564E1642264E363236AA02283F4AF434C
:1012D00083F064039BB23B6247F23053C6E90423B8
:1012E000C6E90A23D4F82080706902F0C9FD002203
:1012F0001C4B02F031FD02F0E7FDDFF86C9088EA4C
:10130000004808EA09003862306A02F0B9FD00229C
:10131000144B02F021FD02F0D7FDD4F8488088EA92
:1013200000081FFA88F0B864F06A02F0A9FD0022F4
:101330000C4B02F011FD02F0C7FD0346A46C2846D9
:1013400084EA034404EA0904BC64BDE8F88300BFEE
:1013500000000000A0000000E833002000800A40E8
:1013600000900A400000E83F0000FFFFF8B5DDE90B
:101370000667DDE9080114461D4632463B4602F089
:10138000D7FC22462B4602F0E7FC32463B4602F0F1
:10139000BBFCF8BD00000000F8B5DDE906671046AB
:1013A00019460022124B02F0AFFC0022114B02F052
:1013B000D3FC0DA3D3E9002302F0CEFC3246044651
:1013C0000D46DDE908013B4602F0B2FC02460B4641
:1013D0002046294602F0C0FC32463B4602F094FC0F
:1013E000F8BD00BFAFF300807B14AE47E17A843FC5
:1013F000000059400000E03F70B514461D460E46FF
:101400000022204629461D4B02F0D0FD30B90022B3
:1014100000232046294602F08DFD08B1012070BD51
:10142000174B06EB4601174A03EB8103986852F805
:10143000266002F025FD22462B4602F08DFC02F0CC
:1014400043FD73081F2E8ABF03F0030303F0070355
:1014500008330D4A03EB83039B001A44F30758BF7C
:101460004FF6FF71136880B244BF00040749434040
:1014700002F580520B400020136070BD0000F03F69
:10148000E8330020DCBF01100C800A400000FFFFA1
:1014900010B508461146144607F0ECF9001B18BFBA
:1014A0004FF0FF3010BD00BF10B500249C4684B043
:1014B0000846069B114600940DF10F028DF80FC0EF
:1014C00007F0FEF9204604B010BD00BF10B500249F
:1014D0009C4684B09DF8183008468DF80D301146B2
:1014E000022303AA00948DF80CC007F0E9F9204606
:1014F00004B010BD2DE9F04383B002AF7C6A0D4605
:1015000004F1080020F00700ADEB000D164604F1D1
:1015100001090DF108088DF808302CB12246396A0E
:101520000DF1090015F09EFC00244B464246314661
:101530002846009407F0C4F920460437BD46BDE8AC
:10154000F08300BF70B51E4684B0154601200C46DE
:101550008DF80F60002603460DF10F02009008463B
:10156000294607F0ADF9DDE9082329462046009613
:1015700007F0AEF9304604B070BD00BF4E4A936923
:10158000D90600F197802DE9F04F0026B046DFF82C
:1015900038B1DFF838A1DFF838919BF800409AF8AD
:1015A00000E099F800C0936913F01003FBD11068B4
:1015B000C0B2002C41D0242868D02C2871D00A2831
:1015C0006BD025461F463D4ACEEB0E110A4402F869
:1015D0000C000CF1010C5FFA8CFC37498A69D206C9
:1015E00019D48A6912F01002FBD10868C0B224280D
:1015F00045D02C283BD00A2836D0304DCEEB0E12E9
:101600002A4402F80C008A690CF1010CD206254626
:101610005FFA8CFCE5D52A4A214610703C46C5B9D4
:101620000BB18AF800E00CB1264B1E70B8F1000F28
:1016300001D08BF80010BDE8F08F242810D021468F
:101640009369DB060AD500251D4A2B461070002D34
:10165000E6D089F800C0002BE3D1E4E70C46A2E70E
:101660004FF001084146EBE727462646B6E70EF164
:10167000010E9446254623465FFA8EFEAEE7944659
:1016800025462346274696461646A7E79C46254606
:1016900023462746E64666469FE71D4627462646DA
:1016A0009BE79C460EF1010E2546234667465FFAEE
:1016B0008EFE92E7704700BF00000740304B0020CD
:1016C000864D0020804D0020834D0020814D00205C
:1016D000824D00202DE9F041AA4894B081420C4689
:1016E00015461E461A9F00F0A081A74B994240F074
:1016F00095811146204601F015FF0221042000F0DB
:1017000027FE0221052000F023FE2946204601F095
:101710008BFF216B9D4801F44041016300233A4651
:101720003146204601F0CEFF2046002102F002F8AB
:101730002220012100F09EFF50222346924EA263F8
:10174000A61BB6FA86F653F8342FDFF858C202F01B
:10175000380203F5805308AD1A60BCE80F000FC5CE
:10176000BCE80F000FC59CE80F00894F07C576093C
:1017700037F916E02B80BEF1240F00F0F880A36942
:101780009A06FCD42420206004F0BAFA0DF11F055B
:101790000DF14C0815F8010FA3699B06FCD42060DD
:1017A00004F0AEFA4545F5D1A3699906FCD42A2088
:1017B000206004F0A5FAA3699A06FCD432202060C8
:1017C00004F09EFAA56915F02005FBD139202060B0
:1017D00004F096FA0D2210466E49002D40F0E48088
:1017E00037F91630934200F0E780A3699B06FCD4DA
:1017F000A2F10D05B5FA85F5226011F8012F6D09EA
:10180000002AEAD1644804F0BDFA4FF4FA7001F0FE
:101810000DFD37F916C0614B01ADBCF1240F93E803
:10182000070085E8070000F0CC80A3699A06FCD485
:101830002420206004F064FA0DF10F0815F8010B64
:10184000A3699B06FCD4206004F05AFA4545F5D103
:10185000A3699906FCD42A20206004F051FAA369F8
:101860009A06FCD43220206004F04AFAA56915F0EB
:101870002005FBD14320206004F042FA0D221046DF
:101880004449002D40F0A78037F91630934200F00C
:10189000AA80A3699B06FCD4A2F10D05B5FA85F5D3
:1018A000226011F8012F6D09002AEAD13A4804F0AC
:1018B00069FA4FF4FA7001F0B9FC394B04AD0FCB63
:1018C00007C537F916C02B80BCF1240F00F09080BB
:1018D000A3699A06FCD42420206004F011FA04AD18
:1018E0000DF11D0815F8010BA3699B06FCD42060BF
:1018F00004F006FA4545F5D1A3699906FCD42A20DF
:10190000206004F0FDF9A3699A06FCD4322020601F
:1019100004F0F6F9A56915F02005FBD13720206009
:1019200004F0EEF90D2210461A49002D6AD137F95C
:10193000163093426DD0A3699B06FCD4A2F10D052D
:10194000B5FA85F5226011F8012F6D09002AECD156
:10195000114804F017FA4FF4FA7001F067FC4FF4E5
:101960001641204614B0BDE8F04101F05DBEA36908
:101970009906FCD40D232360A3699A063FF5FFAEB8
:1019800000E700BF000007400080074000900740CC
:10199000544D002074B80110D0B30110D4B301101D
:1019A000E0B30110F0B30110A3699B067FF520AFEF
:1019B000A3699B06F8D41BE7A3699B06FCD42060AF
:1019C00013E7A3699906FCD40D232360A3699A0643
:1019D0003FF52BAF2CE7A3699B067FF55DAFA369AD
:1019E0009B06F8D458E7A3699B06FCD4206050E717
:1019F000A3699906FCD40D232360A3699A063FF5D9
:101A000067AF68E7A3699B0698D5A3699B06F9D4DD
:101A100094E7A3699B06FCD420608CE7154804F08A
:101A200033FA012014B0BDE8F0811146204601F0E0
:101A300079FD0221002000F08BFC0221012000F042
:101A400087FC2946204601F0EFFD216B0A4801F48E
:101A5000404100233A4601633146204601F032FE00
:101A60000021204601F066FE2120044900F044FEDA
:101A700021205EE6BCB30110001007407D15001068
:101A80004FF0000C10B40524074B084A03F108017D
:101A9000196083F80DC092E80300986019735C60C8
:101AA0005DF8044B704700BFD440002020B4011003
:101AB0002DE9F0414FF00008194C1A4F1A4D1B4EFA
:101AC00082B0002005F0CCFD0DF10701A8B1012284
:101AD000002005F0D1FDF8B19DF8073022880A2BCF
:101AE000337010D022880020511C2180AB5405F0A7
:101AF000B7FD0DF107010028E9D12080D7E90001E9
:101B000002B0BDE8F0810021074805F8028013F01B
:101B100039FDC7E90001D4E7FF23044A1370E1E768
:101B2000724D0020103C0020004D0020854D00200B
:101B30002DE9F047012400250E4684B01E237622AD
:101B400000942048ADF80C50FFF7AEFC642001F083
:101B50006DFB00941E23762231461A48FFF7A4FC41
:101B6000A0244FF0020A184DDFF85890DFF85C808F
:101B700003AFE3B2762231464846CDE9007AFFF75B
:101B8000E1FCBDF80C00214640BA83B225F8020FF3
:101B90001A464046023404F077F9AE2CE9D101240C
:101BA00031464A23762200940648FFF77DFC5A23EB
:101BB0007622314600940348FFF776FC002004B0FB
:101BC000BDE8F087F04A00205E46002028B40110EE
:101BD0002DE9F04F1846144601270D4603268E4B7B
:101BE0008DB01B687622ADF82C301B0CCDE9084077
:101BF0008DF82E3000974A238848FFF755FC0BAC30
:101C0000142001F013FB294600237622019600944C
:101C10008248FFF797FC9DF82D309DF82C201B0281
:101C200043EA02439DF82E2029461343009776226B
:101C300007937A485A23FFF737FC142001F0F6FA8D
:101C4000294600237622019600947448FFF77AFC17
:101C50009DF82D509DF82C20DFF8DC912D0245EAEF
:101C600002459DF82E20B9F80A30B9F80C4015430A
:101C7000A5EB0325EB12240B03FB04F4B9F80800D1
:101C800014F5FA634FEAE47A4AF1000205FB00F02A
:101C90000593069202F0E2F80022614B02F05CF834
:101CA0000646B9F804000F4602F0D8F800224FF0BB
:101CB000824302F051F802460B463046394602F0A4
:101CC00023F802F089FA0746B9F806008A4605FBB0
:101CD00000F08B4602F0C2F84FF07E53002202F073
:101CE0003BF80246B9F802009046894602F0B6F881
:101CF00000224C4B02F030F802460B464046494663
:101D000002F002F802F068FA06468846DDE90501AD
:101D100002F05CF902460B46CDE902230022424B59
:101D200002F008F9002875D005FB05F505EB8500E4
:101D300005EB400002F092F800224FF0775302F0DA
:101D40000BF802F0AFF80146059B069A181A62EBF1
:101D5000E17102F03BF984FB044BCDE902014FEA4B
:101D60008B11A001001B41EA946161EB0B0102F0B1
:101D70002DF900222D4B01F0EFFF02F02DFA301A61
:101D800068EB010906464FEA4B116001001B41EA6E
:101D9000D46161EB0B0102F019F900224FF07F537F
:101DA00001F0DAFF02F018FA381A07466AEB010B65
:101DB0000022DDE902011E4B01F0F4FF089BC3E99C
:101DC0000001079BA3FB060103FB091102F0FEF8CB
:101DD0000022184B01F0C0FF04460D463846594614
:101DE00002F0F4F802460B462046294601F0A0FF17
:101DF00000224FF07C5301F0AFFF00220C4B01F0AA
:101E0000D1FF02460B4600200999C1E900230DB01D
:101E1000BDE8F08FC146CBE738B40110F04A00208E
:101E20000000903F0000F04000409F400000A03FB5
:101E3000000059400000A03E604600202DE9F0411E
:101E40000126002384B00DF10F0528226C4800956F
:101E500001960C468DF80F30FFF774FB9DF80F10BC
:101E6000684804F011F89DF80F302822A02B15BF08
:101E70000B2702274FF014084FF00B08334621467A
:101E8000CDE900565E48FFF75DFB9DF80F105E48F8
:101E900003F0FAFF9DF80F1002232822FB2918BF38
:101EA0004746CDE9005621465548FFF74BFB5748BA
:101EB0009DF80F1003F0E8FF9DF80F30322B4FF024
:101EC000030300F0848021462822CDE900564C48C7
:101ED000FFF738FB4E489DF80F1003F0D5FF4D4833
:101EE00003F050FF42F2107001F0A0F90027012624
:101EF0000A2003F005FF484803F044FF21463E2333
:101F0000282200973E48FFF7E1FA3E232822214687
:101F1000CDE900563A48FFF715FB9DF80F103F48F2
:101F200003F0B2FF21463D23282200973448FFF7F3
:101F3000CDFA142001F07AF93D2328222146CDE97B
:101F400000562F48FFF7FEFA9DF80F10344803F0B3
:101F50009BFF0C213D232822009129482146FFF7B1
:101F6000B5FA0A2001F062F93D2328222146CDE985
:101F700000562348FFF7E6FA9DF80F10294803F0B2
:101F800083FF3B2328222146CDE900561C48FFF75A
:101F9000D9FA9DF80F10244803F076FF80213B23E7
:101FA0000091282221461648FFF790FA3B23282269
:101FB0002146CDE900561248FFF7C4FA9DF80F10EC
:101FC0001A4803F061FF384604B0BDE8F0812822CA
:101FD0002146CDE900560A48FFF7B4FA0C489DF8AF
:101FE0000F1003F051FF9DF80F300F2B7FF477AFE8
:101FF000022F7FF474AF0E4803F0C4FE76E700BFF3
:10200000E84A00203CB4011054B4011078B4011027
:1020100098B40110B8B40110D0B4011008B5011083
:1020200028B5011054B501107CB50110A8B50110F8
:10203000C4B4011000202DE9F0470E46924699469F
:1020400008244FF0010884B01D4F02ADADF80C001C
:10205000029023460134CDE9005828223146384603
:10206000E4B2FFF76FFA0E2C05F10105F1D1BDF9CD
:10207000080001F0F3FE0022124B01F093FEBDF9BF
:102080000A50CAE90001284601F0E8FE00220D4B83
:1020900001F088FE02460B46BDF90C40C9E9002359
:1020A000204601F0DBFE0022064B01F07BFE0246DB
:1020B0000B4600200C99C1E9002304B0BDE8F0876D
:1020C000E84A00200000594000202DE9F0470E4664
:1020D000924699460E244FF0010884B01D4F02AD80
:1020E000ADF80C00029023460134CDE900582822B7
:1020F00031463846E4B2FFF725FA142C05F1010504
:10210000F1D1BDF9080001F0A9FE0022124B01F047
:1021100023FEBDF90A50CAE90001284601F09EFEDF
:1021200000220D4B01F018FE02460B46BDF90C4093
:10213000C9E90023204601F091FE0022064B01F080
:102140000BFE02460B4600200C99C1E9002304B0A7
:10215000BDE8F087E84A00200000B03F2DE9F041DB
:1021600040F201134FF000080C46022584B03B4EAC
:102170006420ADF8083003AFADF80C8001F056F8DC
:10218000374803F0FFFD43462146CDE90075402264
:102190003046ADF80C80FFF7ADF94FF4FE622146F2
:1021A0000097ADF80C2002AF012340223046019584
:1021B000FFF7A0F94346214640223046CDE900759D
:1021C000FFF7C0F9BDF808309DF809205BBA9DF80B
:1021D00008109BB2234803F057FE214601234022FA
:1021E0003046CDE90075FFF7ADF9BDF808309DF830
:1021F00009205BBA9DF808109BB21B4803F044FE0F
:10220000642001F013F821463E2340223046CDE9F8
:102210000075FFF797F9BDF808309DF809205BBA03
:102220009DF808109BB2114803F02EFE21463F2373
:1022300040223046CDE90075FFF784F9BDF808303B
:102240009DF809205BBA9DF808109BB2084803F07E
:102250001BFE404604B0BDE8F08100BFEC4A002000
:1022600064B00110DCB5011000B6011028B60110F1
:102270004CB60110000000002DE9F0474FF0030AB2
:10228000002484B02C4E03AF90469946402200971C
:1022900005233046CDF804A00D46ADF80C408DF86E
:1022A0000E40ADF80840FFF74DF99DF80D009DF880
:1022B0000C30000240EA03409DF80E30184300093C
:1022C00001F0CCFD18A3D3E9002301F045FD402225
:1022D000C9E9000107232946CDE9007A3046FFF716
:1022E00031F99DF80D009DF80C30000240EA0340E2
:1022F0009DF80E3002271843000901F0AFFD0CA332
:10230000D3E9002301F028FD02ABC8E90001402217
:102310000093294630460B230197FFF713F9204617
:1023200004B0BDE8F08700BF00000000006A68400C
:102330000000000000886340EC4A00200120704744
:10234000024B00280CBF1846002070475828002078
:1023500010B44FF480740C4B53F8202003EB80032F
:10236000C00082F0400200F1804003F5805C02F082
:10237000C00200F5203003F54053CCF80020416046
:102380001C605DF8044B70470480034010B4084C97
:10239000C90041EA820154F8202004EB8003514037
:1023A00003F5805301F00C015DF8044B1960704790
:1023B00004800340054B53F8202003EB8003514079
:1023C00001F0010103F58053196070470480034058
:1023D000064B53F8202003EB800382EA011202F03F
:1023E000300203F580531A60704700BF0480034039
:1023F00030B44FF0000343EC440043EC40000525AB
:102400004FF480740B4BC20053F8201003EB800094
:1024100081F0400102F1804303F5203301F0C00256
:1024200000F5805100F540500A605D60046030BCEA
:10243000704700BF0480034010B44FF480711F2424
:102440000C4B53F8202003EB8003C00082F04002C5
:1024500000F1804003F5805C02F0C00200F52030FE
:1024600003F54053CCF8002044605DF8044B19603C
:10247000704700BF048003400FB400B583B0049CD4
:10248000074803F07FFC3CB105A92046019103F009
:1024900051FA044803F076FC012003F063FA00BF10
:1024A00070B60110E8B20110EFF3108072B6064B5F
:1024B000D3E8CF1F01220029FAD1C3E8412F002918
:1024C000F6D1BFF35F8F7047E74100200023034A36
:1024D000C2E88F3F80F31088704700BFE7410020BB
:1024E00070B58646EFF3108572B6124CD4E8CF6F04
:1024F0000120002EFAD1C4E8460F002EF6D1BFF31A
:102500005F8F4FF0010CC80801F007030CFA03F3CA
:102510001EF800C01CEA030608D14CEA030C0EF8B2
:1025200000C0C4E88F6F85F3108870BD1046FFF7B8
:10253000A3FF00BFE7410020F8B5EFF3108572B6A6
:10254000234CD4E8CF7F0126002FFAD1C4E8476F8F
:10255000002FF6D1BFF35F8F9A4227D80126D70804
:1025600010F807E002F0070C06FA0CFC1EEA0C0F4C
:1025700000EBD2070DD125E04FEAD20E10F80EE0A5
:1025800002F0070C06FA0CFC1EEA0C0F00EBD20757
:1025900018D001329342EFD24FF0FF300023C4E84D
:1025A0008F3F85F31088984207DBF8BD0023C4E80D
:1025B0008F3F85F310884FF0FF300029F5D0069843
:1025C000FFF75AFF4EEA0C0E104687F800E0E5E7E9
:1025D000E7410020044A1078431CDBB2182B28BFC7
:1025E00010231370704700BF842B002010B5054CDA
:1025F00082B001461F23182200940348FFF79CFF76
:1026000002B010BD80B60110784600204FF0E022E5
:10261000936843F000539360704700BF0021044B60
:1026200003F12002C3E88F1F01339342FAD17047B0
:10263000DC4100204FF0E0234FF08032C3F800244B
:10264000C3F80424C3F80824C3F80C24C3F81024E6
:10265000C3F81424C3F81824C3F81C24C3F8202496
:10266000C3F82424C3F82824C3F82C24C3F8302446
:10267000704700BF012300F01F029340400941B1A1
:10268000800000F1604000F56140C0F880310360D7
:102690007047024A203042F82030704700E100E0E5
:1026A0000123064A410952F8212000F01F0083400F
:1026B000134214BF01200020704700BF00E100E07A
:1026C00001224309034900F01F008240403341F8D2
:1026D0002320704700E100E0054A10309268054B66
:1026E00052F82000C01A5F288CBF002001207047DC
:1026F00000ED00E0882B0020F8B50D46EFF31087C1
:1027000072B6124ED6E8CF2F0123002AFAD1C6E8BE
:10271000423F002AF6D1BFF35F8F0D4B00F110044A
:102720009B680C4A53F82430934203D0994201D05D
:1027300001F0C8F9064B9B6843F82450BFF35F8F44
:102740000023C6E88F3F87F31088F8BDE5410020DD
:1027500000ED00E01D0100102DE9F04F81468B4691
:10276000164683B0EFF3108372B6DFF8D0A1009362
:10277000DAE8CF1F01230029FAD1CAE8413F002936
:10278000F6D1BFF35F8F664B93F90040002CC0F287
:10279000A080644D04EB440705EB870898F8061009
:1027A00009F110091970604BBF009B6853F82900AC
:1027B0006300411B5F292FD95C49884240F0A48007
:1027C0001C445B4B02372F44043BDB1BC3F34A031F
:1027D0006FEAC3434FF421416FEAD34325F8241035
:1027E00005EB840463804BF60153A380FF2348F07C
:1027F0000100E671C4F808B0A3714B4B9B6843F825
:102800002900BFF35F8F0023CAE88F3F009B83F34B
:10281000108803B0BDE8F08F20F0010E9EF807107D
:10282000B1422ED84FF42143EB53414BB91C2944FC
:10283000043B04375B1A2F44AEF104013D4CC91B25
:10284000C1F34A012143A8F80410C3F34A033A49EB
:102850002343A8F802304AF6AA2073465B1B5B416B
:102860005843000D88F8076088F80600C8F808B0DB
:1028700048F00100CEF80010BFE7D179B1422ED95F
:1028800096469EF906C00CEB4C02BCF1000F05EB1E
:102890008202F2DA4BF601510EF10402A8F10407AC
:1028A000BF1AC7F34A076FEAC7476FEAD7478EF8E0
:1028B000064003EB0408204C05EB8803AEF80470D7
:1028C00045F82840998083F806C0DE71C3F808B047
:1028D00093E701F0F7F8124B93F9004059E772467D
:1028E00032F8041F490514D44915023102EB4101A5
:1028F00001916FF00701C91B019F491B3944C1F3C6
:102900004A0141F46041C9E7019301F0DBF8019B02
:1029100056E701F5FF1101F5FF511F31E4E700BF54
:102920007C4D0020882B002000ED00E01D010010F0
:10293000E82B002000E0FFFF01488047E541002030
:10294000F0B5EFF30585EDB2EFF3108C72B63249B6
:10295000D1E8CF2F0123002AFAD1C1E8423F002A53
:10296000F6D1BFF35F8F2D4E40F0010EB4684AF6EA
:10297000AA2354F825702A4A0446A41A64416343E2
:102980001B0D77455BB22BD092F906409C422CD0B0
:1029900092F912409C4235D092F91E409C4233D0AD
:1029A00092F92A409C4231D092F936409C422FD075
:1029B00092F942409C4223D092F94E409C4229D049
:1029C00092F95A409C4208BF07240FD0154A0024B0
:1029D000157813708571C1E88F4F8CF31088F0BDA6
:1029E000B268114C42F82540F0E7002404EB44049F
:1029F00002EB8402FF2494714BF601549480E5E7C6
:102A00000524F3E70124F1E70224EFE70324EDE7CF
:102A10000424EBE70624E9E7E541002000ED00E0AF
:102A2000882B00207C4D00201D01001010B5074CA4
:102A300082B001460523002200940548FFF77CFD83
:102A40000028A8BFC0F1330002B010BD9CB6011031
:102A5000874D002070B504460E461546FFF7BAFDB7
:102A60000146204600F006F8A680E580BFF35F8FA0
:102A700070BD00BF014B0B4403607047DC41002078
:102A800070B5104C104DAC420ED2FF26236863B1D6
:102A9000FFF7A0FD01462046FFF7ECFFA680BFF33D
:102AA0005F8F0834AC42F1D370BDFFF793FD014650
:102AB0002046FFF7DFFF2671BFF35F8F0834AC427B
:102AC000E4D370BDC8330020E833002010B50446BD
:102AD000FFF780FD01462046FFF7CCFFFF2323715F
:102AE000BFF35F8F10BD00BF10B504460120FFF794
:102AF0007DFD034B03442360BFF35F8F10BD00BF18
:102B0000DC410020024B0B440360BFF35F8F704732
:102B1000DC4100200D4B1A68EFF3108172B6D2E849
:102B2000CFCF0120BCF1000FF9D1C2E84C0FBCF1AE
:102B3000000FF4D1BFF35F8F00221B68C3E88F2F13
:102B400081F3108840BF002000217047404D0020D5
:102B50002DE9F04F2DED028B85B0EFF30583DBB24D
:102B6000103B9A0818BF01224FF0010103F0030047
:102B700018BFAF4DAF4B08BFAF4D00EB820253F80B
:102B8000226001FA00FB05F541539FEDA78B0190F0
:102B9000C3F804B02EE0B388180440F19280B379F2
:102BA000002B40F0DC80B6F908100029C0F21D812E
:102BB000736901EB410103EBC103D3E90247B7F1AC
:102BC000FF3F08BFB4F1FF3F0DD0019B05EB830130
:102BD000AB6A0A69D21AE31A934203D32B6A13EA47
:102BE0000B0F00D10C61284600F036FCA042B94121
:102BF000C0F2FB80B6F90830C5F83CB0002B00935A
:102C0000C9DBD6F8149003EB430A284609EBCA0740
:102C1000D7E9024800F020FCA04271EB0801BADBC2
:102C2000B8F1000FC0F2C380D7E90431834A934260
:102C300000F0ED807A88B6F9080092B242EA0040CE
:102C4000984702460B4652EA030100F0B080002B81
:102C500080F2D180B4EB020E68EB030839F93A3008
:102C6000C7E902E8002B96DB716903EB430201EB35
:102C7000C202D2E90270BE4578EB000C4FEA430273
:102C800089DBB4462CF8083F0BE031F93230A4461A
:102C9000002B0DDB03EB430001EBC0005A00D0E931
:102CA0000270BE451A4478EB000001EBC204ECDA76
:102CB00029F83A30009BACF80030B38818043FF58F
:102CC0006EAF3369EFF3108272B6D3E8CF0F0121F4
:102CD0000028FAD1C3E8401F0028F6D1BFF35F8F68
:102CE0004FF6FF74B0880023316900B2B480C1E8A8
:102CF0008F3F82F310889842FFF651AF0746A946EE
:102D0000746906F1080807EB470E04EBCE03D3E91C
:102D10000250B6F90830C446002B13DBB2460097C8
:102D200004E034F936309446002B09DB03EB43060C
:102D300004EBC602D2E90271BD4270EB0101F0DA88
:102D40005646009FACF8007034F93E7024F83E30CF
:102D5000002FD8DAB3794D46002B3FF424AF00237F
:102D6000B371B6F9083006F10808591C3DD0194670
:102D7000776903E080465A1C3FF417AF03EB430228
:102D800007EBC200B0F802C01C461CF4004F9E4680
:102D900037F93230EED08C4280ED028B05D0A8F8A6
:102DA0000030318927F8321034817146E3E739F871
:102DB0003A3033813369EFF3108272B6D3E8CF0F24
:102DC00001210028FAD1C3E8401F0028F6D1BFF343
:102DD0005F8F7388316929F83A30009B7380002334
:102DE000C1E88F3F82F31088D5E640BF05B0BDEC47
:102DF000028BBDE8F08F2846CDE9022300F02CFBC2
:102E0000029A039B10EB020E43EB010826E70846EB
:102E10000B69029198470028C9D00299D1E9002393
:102E200011E700BFAFF30080FFFFFFFFFFFFFFFFD1
:102E300000800B400C4B002000000B40512B001079
:102E40002DE9F84F364C25692DB1BDE8F84F0A2120
:102E50003448FFF70FBEDFF8E4800321404600F05E
:102E6000E9FA0326C4F80C80FFF7B4FB4FF0504C8E
:102E70002D4B267003442361DCF800300F21637072
:102E8000636961801D834FF00405A3F878504FF00B
:102E90000505A3F890504FF00605A3F8A8504FF091
:102EA00007050E214FF6FF7208274FF00A0EA3F810
:102EB000C0504FF001094FF00C0C4FF0020B4FF0D7
:102EC000090A0D204FF00B05A3F868111749A280DD
:102ED000A3F808E1A160A3F848B0A3F8F0A0A3F814
:102EE0002051A3F838C1A3F85001A3F83090A3F8FB
:102EF0006060A3F8D8701A800D4B3046C8F8207077
:102F00000C49DC60FFF7F8FB49463046FFF7B2FB9F
:102F1000094B0A211F640348BDE8F84FFFF7AABD1B
:102F2000002C0020404D0020DC410020FFFF10005D
:102F30000C4B0020512B001000200B4000000B40D8
:102F400000487047002C0020F8B59DF8207004461A
:102F500016461D4637B900F087FA864265EB010137
:102F600000295CDB2369EFF3108772B6D3E8CF1F2B
:102F700001220029FAD1C3E8412F0029F6D1BFF37D
:102F80005F8FB4F902C063690CEB4C01BCF1000F18
:102F90004FEAC10203EBC10138DB985A4FF0000E33
:102FA00060802069C0E88FEF87F310880698C1E938
:102FB000026508610798486148880130C0F30E0037
:102FC000012838BF0120488040EA0C402169EFF316
:102FD000108572B6D1E8CF7F0126002FFAD1C1E863
:102FE000476F002FF6D1BFF35F8FA1889952A4F8E5
:102FF00004C02369C3E88FEF85F310880122E368DA
:10300000217803F501538A405A60F8BD00232269F4
:10301000C2E88F3F87F310884FF0FF30F8BD384685
:10302000F8BD00BF0146F0B50069EFF3108772B636
:10303000D0E8CF5F0124002DFAD1C0E8454F002D24
:10304000F6D1BFF35F8FB1F902E04C690EEB4E0C85
:10305000BEF1000F4FEACC0504EBCC0C3DDB605B0E
:10306000002648800869C0E88F6F87F31088BCF895
:103070000200CCE902230130C0F30E00012838BF62
:103080000120059BACF80200CCF81030069B40EA0A
:103090000E40CCF814300B69EFF3108272B6D3E80F
:1030A000CFCF0127BCF1000FF9D1C3E84C7FBCF1B1
:1030B000000FF4D1BFF35F8F8B886353A1F804E056
:1030C0000B69C3E88F6F82F310880122CB680978FF
:1030D00003F501538A405A60F0BD00230A69C2E833
:1030E0008F3F87F310884FF0FF30F0BD03464089D3
:1030F000B0EB214F37DD58690A1402EB420210B5DC
:1031000000EBC2001C69EFF3108C72B6D4E8CFEF6D
:103110000122BEF1000FF9D1C4E84E2FBEF1000F1D
:10312000F4D1BFF35F8F428889B292B28A4207D04E
:1031300000221B69C3E88F2F8CF31088002010BD7C
:1031400042F4004242800121002218699971C0E8CE
:103150008F2F8CF310881C78DA68084602F501532B
:10316000A140596010BD0020704700BF40787047F3
:103170002DE9F041861F41F1FF35B04271EB0503A7
:1031800038BF002682B038BF354604460F4600F0EF
:103190006BF9301A65EB0103012873F1000306DABD
:1031A0002046394602B0BDE8F04100F099B900F080
:1031B0005BF9864265EB010100290ADB0021174B10
:1031C0003246009316482B460191FFF72BFF00284B
:1031D000E6DB4FF0000C1348134A436A9D4204D8C3
:1031E000816AB142DCD29D42DAD11368EFF31081DB
:1031F00072B6D3E8CF8F5FF0010EB8F1000FF8D1AF
:10320000C3E848EFB8F1000FF3D1BFF35F8F136845
:10321000C3E88FCF81F3108820BFDEE7152B0010A5
:10322000002C002000000B40404D002010B504464B
:1032300000F01AF94FF47A734FF0FF3C6FF0004240
:10324000E4FB0301BDE81040844572EB01033CBF81
:1032500060461146FFF78CBF2DE9F04306460D4648
:1032600083B0EFF30584E4B23CB1274B586AA8421F
:103270001CD2002003B0BDE8F083244FD7F80C9097
:1032800097F80080484600F0E7F808F1040859F87C
:1032900028301B1A301A65EB0101984271F10001C8
:1032A00011DB20BF184B586AA842E2D39B6AB34295
:1032B00003D3012003B0BDE8F083401B18BF0120F9
:1032C00003B0BDE8F08300F0CFF8864265EB010162
:1032D0000029CADB0E4B3846CDE9003432462B4676
:1032E000FFF7A0FE011EC0DD074B5A6AAA4208D3B1
:1032F0009B6AB34203D30548FFF7F8FEB5E7AA423D
:10330000F9D120BFF7E700BF00000B40002C0020E0
:10331000152B00102DE9F0410446DDE9071552EAAE
:10332000030070D0002B16461F4671DB0698C5E9D6
:1033300000232861AC60696100F096F84FF0FF321D
:103340006FF00043801947EB0107824273EB0701DE
:103350003CBF1F4610462369EFF3108872B6D3E8CE
:10336000CF1F01220029FAD1C3E8412F0029F6D14D
:10337000BFF35F8FB4F90260616906EB4603002E6C
:103380004FEAC30C01EBC30346DB31F80C204FF0CE
:10339000000E62802269C2E88FEF88F310885A8895
:1033A000C3E902070132C2F30E02012A38BF01222B
:1033B0001F485A805D61186142EA06422369EFF3B3
:1033C000108072B6D3E8CF8F0127B8F1000FF9D182
:1033D000C3E8487FB8F1000FF4D1BFF35F8FA38833
:1033E00021F80C30A6802369C3E88FEF80F31088A2
:1033F00001202178E36800FA01F103F501535960D7
:10340000EA60BDE8F0810126002732463B468DE7A1
:10341000564263EB430789E700202369C3E88F0F17
:1034200088F310884FF0FF32EA60BDE8F08100BFFA
:10343000512B001010B4054B054C064AA04214BF96
:103440001846581C5DF8044BFFF74AB87C4600202C
:1034500000800B40B8B601100346416A0A46986ADC
:10346000596A8A42FAD17047034B596A0A46986AE8
:10347000596A9142FAD1704700000B4010B4174AC4
:10348000536A9C46946A536A6345FAD100195941BC
:103490004FF0000228BF01220346CAB10F4B596A00
:1034A0004B1C08BF0B4608D04FF0FF310B460B48B2
:1034B000426A8A42FCD38A4207D1084A02E0506A33
:1034C000884202D1906A9842F9D35DF8044B704764
:1034D000024A526A9142EAD8EDE700BF00000B4071
:1034E000074A536A9942FCD8994207D1044B02E03B
:1034F0005A6A914202D19A6A8242F9D3704700BF58
:1035000000000B4010B5002314464FF47A7217F0F8
:10351000DBFB034BC4E9000103FB02F2A26010BD18
:1035200040420F00F8B5054606200E4600F096F919
:10353000002842D0354A3648954214BF4FF0806289
:103540004FF00062334B344902601A608C6832EAF3
:103550000404FBD12D4B4FF48071EB1AB3FA83F3C3
:103560002E4A5B09062022F8131000F077F9C300F9
:10357000B3FBF6F30133DA0920D140260121696259
:10358000AA622F6BFB0722D42B46002253F82C1F74
:10359000062003F5805422602F6300F05FF940F2AB
:1035A000013103228000B0FBF6F0EB6A83F0700378
:1035B00003F07E0323602963AA64F8BD4FF6FE7111
:1035C0008A421BD922464FF6FF71154ED7E740F2CB
:1035D000013205F540531A636B6AAC6A062004EBAE
:1035E000831400F03BF90F4BA402A3FB0023DB0A7A
:1035F0000021B4FBF3F0FFF741FFC5E7C3F3450338
:10360000114603EB82161A46B9E700BF0080074057
:10361000002002400030024000000240544D0020D3
:10362000C0FF3F00757B2B8FF8B5044606200D4682
:1036300000F014F9C300B3FBF5F30133DA0908D045
:103640004FF6FE718A421AD900224FF6FF711B4DC8
:1036500001E0402501216162A262266BF30715D4C7
:103660002346002253F82C1F062003F580531A60CE
:10367000266300F0F3F88000B0FBF5F0F8BDC3F36B
:103680004503114603EB82151A46E4E740F2013286
:1036900004F540531A63636AA76A062007EB831791
:1036A00000F0DCF8064BBF02A3FB0030C00A00218B
:1036B000B7FBF0F0FFF7E2FED2E700BFC0FF3F002C
:1036C000757B2B8F013A0539D200F8B5054642EAE1
:1036D000411443B1A3F10103B3FA83F35B0944EA54
:1036E000830343F002042E6BF3070AD42B4653F8EE
:1036F0002C2F624002F06E0203F580531A602E6395
:10370000F8BD40F2013205F540531A636B6AAF6AA7
:10371000062007EB831700F0A1F8054BBF02A3FBBF
:103720000030C00A0021B7FBF0F0FFF7A7FEDDE78D
:10373000757B2B8FF8B5066B0546F3074FEA01142E
:103740000AD42B4653F82C2F544004F0100403F5F0
:1037500080531C602E63F8BD40F2013200F54053E7
:103760001A636B6AAF6A062007EB831700F076F8DE
:10377000054BBF02A3FB0030C00A0021B7FBF0F0ED
:10378000FFF77CFEDDE700BF757B2B8F00EB400C65
:103790004FEA8C0C0CF1804C0CF5803CF0B51646D1
:1037A000DCF80420051FB2F5803F38BF4FF48032AB
:1037B000EDB238BFCCF80420012D2AD94FF40067B0
:1037C000254C0CF54052176054F82020B2B9DCF8B3
:1037D0000020012D82EA461202F0E0020CF580562C
:1037E00032602AD94FF4006144F820304FF480331E
:1037F0000CF500521160CCF80430F0BD6769B7FBDE
:10380000F2FE0EF1010E0EEB4E0EBEF1030EFCD2D7
:10381000DDE70129D2D103240CF540521460DCF815
:103820000820D207FBD5DCF800200B4C82EA4612B8
:1038300002F0E0020CF5805632600122DCF8005004
:103840004D4005F00305356002FA01F1DCF808206F
:103850000A42FBD0C6E700BF84460020014B53F864
:10386000200070478446002030B4114AD2F8A430BA
:1038700013F48073FAD10F490F4C09690A25A4FB90
:1038800001414FF0FF348909C2F88C100849C2F891
:103890009C50C2F89030C2F89440C2F8A000D1F811
:1038A000A430DB06FBD530BCD1F8A8004009704736
:1038B0000000014084460020D34D621070B4039D87
:1038C00004682D0345EA03451B4B002CB3FBF1F3C1
:1038D000B2FBF3F61FDB194A194B904214BF4FF4A9
:1038E00080424FF40042174C1A6003F580531A606F
:1038F000A36832EA0303FBD1212200F540530433CD
:10390000016086601A600268002AFCDA0822C5603D
:103910001A6070BC7047036803F03F038B42DAD132
:103920008368C3F30B03B342D5D1C36803F4EE231A
:10393000AB42D0D1EDE700BF001BB70000800540CF
:10394000002002400000024030B44FF080441C4B85
:103950001C60E0B11B4CA3F54053DC611A4C40F0F5
:10396000010044401C62596298624FF080454FF05C
:10397000E061134B1548164C1D60846019604AB90C
:1039800030BC4FF00042A3F580531A607047114BD2
:10399000D861EAE74FF47A7303FB02F2B2F1807F59
:1039A0002ABF6FF07F4313461A464FF080410A4CFE
:1039B00008482360094B426030BC1960704700BF63
:1039C00000B00D40D3C007B02D3FF84F00A001401C
:1039D000F3FFFF0100800D40FC4A002000A00D40D5
:1039E000012300EB4000800000F1804000F58410CE
:1039F00041600360704700BF002370B5DB8A044656
:103A00000D46002242E800F2520254BF1021042168
:103A100044F25220984786462B462246F446BDE89B
:103A200070400A214FF48170604700BF0023DB8A99
:103A3000002242E800F2520201D41021184704216A
:103A4000184700BF08B503460846191E02DB1AB125
:103A500040F03000FFF7D0FF40F02000FAE700BF51
:103A6000034AD2F82838002BFBD0BFF35F8F704792
:103A700000000E400021044B044ABFF35F8F43F85F
:103A8000041B9342F9D170470C080E402C080E40DD
:103A900010B44FF48D704FF42A64064A064B074960
:103AA0001460D06019605368002BFCDA5DF8044B99
:103AB000704700BF0080044000A0044000B0FA003E
:103AC000704700BF08B50148FEF7D6FCDCB6011010
:103AD00038B5054C054DAC4204D254F8043B984728
:103AE000AC42FAD338BD00BF40AD011080AD01102B
:103AF00038B5054C054DAC4204D254F8043B984708
:103B0000AC42FAD338BD00BF6CAD011080AD0110DE
:103B100010B40748074C084B084A094904601A606A
:103B20008B6832EA0303FBD15DF8044B704700BF9A
:103B3000002002407F3BEFEF00300240F6FFF3032E
:103B400000000240044BDB6CB3F5004F03D14FF48F
:103B50008022024BDA64704700001150002011509F
:103B60004FF0E022044BD2F8881D0B43C2F8883D89
:103B700010EE3004704700BF030330006FF0604167
:103B8000044B054A19609368DB4333F06043FAD174
:103B9000704700BF003002400000024010B545F2FF
:103BA0005320FFF743FFBDE81040034604201847A9
:103BB00010B545F25320FFF739FFBDE8104003462A
:103BC00001201847FEF72ABD10B5054B054C4FF4F0
:103BD00088721846A16813F045F9A06010BD00BFB7
:103BE0000000002000ED00E0002370B52B4C82B0F7
:103BF000C4F88430FFF74CFF0122294BDA63636C71
:103C0000012BFCD10321264A244B11639C6B012C10
:103C1000FCD10226052521460523224A224800968A
:103C2000FFF74CFE21462B46204A21480095FFF71E
:103C300045FE0022042031461E4BFFF7A7FD21461A
:103C4000284600221C4BFFF7A1FD00220820114648
:103C50001A4BFFF79BFD002209201146174BFFF777
:103C600095FD002206201146134BFFF78FFD002221
:103C7000114B07201146FFF789FD0420FFF7EEFDE9
:103C800000240F4BA3FB0035AD0CE0B229460134F4
:103C9000FFF7A6FE062CF8D102B070BD000001406F
:103CA00000300140002F685900000540008C864715
:103CB00000800540001BB70080D1F008006CDC02DA
:103CC00083DE1B4386B003B451FC0804CDE9020136
:103CD00051FC0904CDE9040151EC0A04CDE90601C7
:103CE00003BCF047BDE800504EEC00C4BDE80050F6
:103CF0004EEC01C4BDE800504EEC02C400BD000013
:103D000000B5FFF7DFFF02E010FE30F4F8D441EC1D
:103D1000100443EC112400EE010410EE010480EEC7
:103D2000200451EC1004704700B5FFF7CBFF02E010
:103D300010FE30F4F8D441EC100443EC112400EEF2
:103D4000010410EE210480EE200451EC3004704791
:103D500000B5FFF7B7FF02E010FE30F4F8D410B55D
:103D600041EC100443EC112451EC040453EC052401
:103D7000A0FB024C5FF0000EE0FB03CEE1FB02CEA5
:103D80004CEC20440024E1FB03E444EC30E480EEFE
:103D9000200451EC5004BDE81040704700B5FFF717
:103DA00091FF02E010FE30F4F8D441EC100443EC33
:103DB000112451EC2104A0FB01126FEA820252FB94
:103DC000100052FB12F252FB1000A0EBD07C53EC1F
:103DD00004245CFB13F153EC1524A1FB022001FB2E
:103DE000030053EC4424A2EB000050FB1CF24FEA0A
:103DF000111312EB017043EBE27140EA515020EADB
:103E0000915020F0070053EC7524A0FB023C53ECCA
:103E1000752400FB03CC01FB02CC53EC0424ACEB77
:103E2000824C40EA5C70A0F1010041EC400480EE5D
:103E3000200451EC7004704700B5FFF743FF02E027
:103E400010FE30F4F8D441EC100480EE220410EEA1
:103E5000B204704700B5FFF735FF02E010FE30F402
:103E6000F8D440EC700400EE010410EE210480EE62
:103E7000200451EC3004704700B5FFF723FF02E047
:103E800010FE30F4F8D440EC600400EE010410EEB3
:103E9000210480EE200451EC3004704700B5FFF798
:103EA00011FF02E010FE30F4F8D441EC800400EE83
:103EB000010410EE010480EE400410EE130470477C
:103EC00000B5FFF7FFFE02E010FE30F4F8D441EC3D
:103ED000800400EE010410EE010480EE400410EEB8
:103EE0003304704700B5FFF7EDFE02E010FE30F43A
:103EF000F8D441EC100443EC112400EE010410EE60
:103F00003004C0F30070704700B5FFF7DBFE02E03D
:103F100010FE30F4F8D441EC100443EC112400EE10
:103F2000010410EE3004C0F38070704700B5FFF755
:103F3000C9FE02E010FE30F4F8D443EC102441EC4A
:103F4000110400EE010410EE30F48CBF01200020BB
:103F5000704700BF00B5FFF7B5FE02E010FE30F479
:103F6000F8D443EC102441EC110400EE010410EEEF
:103F700030F42CBF01200020704700BF00B5FFF7D0
:103F8000A1FE02E010FE30F4F8D441EC100443EC42
:103F9000112400EE010410EE30F42CBF01200020AB
:103FA000704700BF00B5FFF78DFE02E010FE30F451
:103FB000F8D441EC100443EC112400EE010410EE9F
:103FC00030F48CBF01200020704700BF0022002980
:103FD00050DA404261EB4101C9B1B1FA81F30B3BC8
:103FE00017D4D3F1200C30FA0CFC9840994051EAD8
:103FF0000C011A44524202F2324201EB025141F0EA
:10400000004140F2FE739A4238BF704721E01146EA
:104010007EE003F1210310FA03FCA3F1010301FA8E
:1040200003FCC3F1200320FA03F021FA03F140EA74
:104030000C00A3EB020202F2324214D050F1000055
:1040400041EB025141F0004140F2FE739A4238BF09
:1040500070474FF00001A8BFC7F6F0714FF00000A5
:10406000704700217047EBD350F1000020F00100B1
:10407000E6E70022B9B1B1FA81F30B3B16D4D3F1D4
:10408000200C30FA0CFC9840994051EA0C011A447B
:10409000524202F2324201EB025140F2FE739A4266
:1040A00038BF704720E0114600F066B803F12103E5
:1040B00010FA03FCA3F1010301FA03FCC3F120038E
:1040C00020FA03F021FA03F140EA0C00A3EB02020C
:1040D00002F2324212D050F1000041EB025140F2A4
:1040E000FE739A4238BF70474FF00001A8BFC7F671
:1040F000F0714FF00000704700217047EDD350F190
:10410000000020F00100E8E7002880F235804042FE
:10411000B0FA80F30B3B11D4984001EB03025242FA
:1041200002F2124200EB025141F000414FF0000058
:1041300040F2FE739A4238BF704713E0C3F10003A8
:1041400030FA03FCC3F120029040A3EB010202F21B
:1041500012420CEB025141F0004140F2FE739A42D0
:1041600038BF70474FF00041A8BFCFF6F0714FF055
:10417000000070470021704760B3B0FA80F30B3B3A
:104180000FD4984001EB0302524202F2124200EBBC
:1041900002514FF0000040F2FE739A4238BF704760
:1041A00010E05B4230FA03FCC3F120029040A3EB25
:1041B000010202F212420CEB025140F2FE739A42EB
:1041C00038BF70474FF00001A8BFC7F6F0714FF03D
:1041D00000007047002170470022A2F232425FEADD
:1041E000215CACF10103A1EB03515B0513F5800FDA
:1041F00032D212EB535210D40B2A36DA9140D2F15C
:10420000200330FA03F319439040BCF1000FA8BF1C
:104210007047404261EB4101704720320EDD01FAE8
:1042200002F3D2F12002D140D0401843BCF1000F7C
:10423000A8BF7047404261EB41017047524282F390
:10424000050231FA02F00021BCF1000FA8BF70474F
:10425000404261EB4101704702D0002000217047CD
:1042600050EA013118BF4FF0000C6FF0004101EB34
:10427000DC716FEAEC70704738B50446094816F0F7
:1042800033FD204612F0DEFD0546064816F018FD07
:104290002DB1054B2C449C4201D8284638BD03481B
:1042A000FEF7EAF8C833002000000820E8B6011045
:1042B00038B50446054D284616F016FD204612F086
:1042C000C9FD2846BDE8384016F0FABCC8330020C6
:1042D000FFF7EEBF9A4238BF88547047704700BF5F
:1042E0002DE9F04F83B09946DDE90DAB0F9B884671
:1042F00011469A07074616D1DA453AD20C460D46C2
:10430000ABEB0A060E4422464B46414620200134C0
:10431000B847B442F7D12946BAF1000F08D1204678
:1043200003B0BDE8F08F0C46BAF1000F10D00E4676
:1043300055460C9B2E449A440191721B4B46013DFD
:1043400041461AF8010D3446B847002DF5D10199C0
:104350000F9B9B07E3D5651AAB45E0D922464B4638
:10436000414620200135B8475D4504F10104F5D3ED
:10437000D5E7BAF1000FDAD10C46D0E72DE9F04FBE
:104380000F9FDDF824E017F0020F0A9C9DF82C9097
:104390000E9DDDE90C8629D1002D6FD1B44225D2C6
:1043A000202C07F0010B00F0128104F1FF3C4FF0CC
:1043B000300AF44401E0202C7AD00134A6420CF8F3
:1043C00001AFF8D8BBF1000F10D0AC420ED2202CB8
:1043D00074D004F1FF3C4FF0300AF44401E0202C8B
:1043E00029D00134AC420CF801AFF8D117F0100F0E
:1043F0003AD017F4806F28D11CBBB8F1100F00F031
:10440000CA80B8F1020F00F0D48030248EF800404A
:104410000124B9F1000F67D17E0740F1AA802B2655
:104420000EF804600134CDE90B57CDE909E4BDE88D
:10443000F04FFFF755BFFC0640F189807C0535D46D
:104440002024A6426AD0AC4268D0B8F1100F00F028
:104450008780B8F1020F5AD0202CE4D026460134D0
:104460004FF0300C0EF806C0202CD2D1CDE90B57FE
:10447000CDE909E4BDE8F04FFFF732BF17F0010BBB
:104480003ED0B9F1000F47D117F00C0F44D1B44220
:104490009BD2202C89D1202D10D8FC0657D57C0525
:1044A00055D4202E00F0B980202D10D02024CCE748
:1044B000BBF1000F00F0A580202DBCD9FC0646D52D
:1044C0007C0544D4202E00F0A880202D3FD12C461E
:1044D0001F26B8F1100F7FD0B8F1020FC0D14FF0F6
:1044E000620C0EF806C0B7E72D260EF80460013402
:1044F000CDE90B57CDE909E4BDE8F04FFFF7F0BE79
:10450000B442BFF473AF202C7FF44FAFD6E7202C1A
:1045100089D026460134E2E7013DB8E7661ED8D1CE
:10452000B8F1100F64D0B8F1020F7FF46EAF6226BD
:104530008EF80060302644468EF80160B9F1000F15
:104540003FF46AAFD0E7B8F1100F7FF46CAF2024CE
:10455000CDE90B57CDE909E4BDE8F04FFFF7C0BE48
:10456000BE060ED4202CF2D078260EF8046001345A
:1045700072E73E077FF557AF20260EF8046001343E
:1045800051E7202CE3D04FF0580C0EEB040686F8D0
:1045900000C0013460E7BE0617D558248EF80040ED
:1045A00030248EF801400224B9F1000F3FF434AFFB
:1045B0009AE762248EF8004030248EF801400224ED
:1045C000B9F1000F3FF428AF8EE77824F2E7BBF192
:1045D000000F7FF462AF71E717F0200F0CBF4FF0B0
:1045E000780C4FF0580CA61E0EF806C0013C35E7BB
:1045F000BC06EAD558248EF8004030248EF80140DD
:10460000DDE717F0100F3FF40EAF17F4806F9AD16B
:10461000202E7FF418AF1F265BE734461F2658E78D
:1046200000B9704701F06CBB10B1D1E900311847F7
:10463000704700BF000000002DE9F04F9FB09DEDD6
:10464000287BDDE92AA558EC177B83461E460D9191
:10465000109243463A46384641468DED087B2C9CE5
:10466000FFF744FC002840F0D880384641464FF020
:10467000FF32754BFFF79AFC002840F0CE80384699
:1046800041464FF0FF326FF48013FFF753FC0028D0
:1046900040F0C380DDE90878002238464146002317
:1046A000FFF748FC002840F0C081CDE90A78DDE939
:1046B0000A2390461F4614F4806308BF4FF0060A91
:1046C000139304F4006258EA0703119240F0C0808B
:1046D000002A00F0A2819FED5A7B00278DED0E7B12
:1046E0004FF00009BA45CCBFAAEB070A4FF0000A09
:1046F0004F46C8BF0AF1FF3A44F480644D4594BF69
:104700004FF00008A5EB090814F00203119304D040
:10471000B9F1000F18BF4FF000083FB1DDE90A0101
:10472000DDE90E23FFF73EFBCDE90A01DDE90801D3
:1047300000220023FFF7FEFB30B1DDE90A0102464B
:1047400001F10043CDE90A239DED0A7BCDE902A8E2
:10475000DDF834A024F4006304938DED007B334630
:1047600051465846109A00F097F98046B9F1000F6B
:104770004FD014F0200F024600F1010433460CBF65
:10478000652045205146D84709F1FF3087EAE77C8C
:104790000DF1580900224B46DFF8B080ACEBE77C06
:1047A0004FEAD77E01E0202A10D0E246A8FB0C7128
:1047B000C90801EB8107ACEB47073037BAF1090FA5
:1047C0008C4602F1010203F8017BECD80523059029
:1047D000069300200A230D9FCDE90330CDE9012E79
:1047E0003346224639465846CDF80090FFF7C6FDBD
:1047F000119B80466BB1109BC41AA54209D9424651
:104800003346394620200134D847A54208F1010833
:10481000F5D840461FB0BDE8F08F9DED087B3346CC
:104820005846109A0D998DED287BCDE92B54CDF883
:10483000A8A01FB0BDE8F04F00F02EB9AFF3008084
:104840000000000000000000FFFFEF7FCDCCCCCCCB
:10485000C7F30A50A0F2FF30FFF700FB8AA3D3E9A9
:104860000023FFF779FA8AA3D3E90023FFF74CFA74
:10487000C7F31307CDE90E0147F07F5140460022F0
:104880007B4B41F44011FFF753FA6BA3D3E90023AC
:10489000FFF762FA02460B46DDE90E01FFF734FA34
:1048A000FFF700FB0746FFF7D9FA65A3D3E900231A
:1048B00080468946FFF750FA00226E4BFFF724FA34
:1048C000FFF7F0FA03464946404612935EA3D3E948
:1048D0000023FFF741FA804612988946FFF7BEFA97
:1048E0005BA3D3E90023FFF737FA02460B464046A5
:1048F0004946FFF71DFA02460B4680468946FFF7F8
:104900002BFA42464B46CDE90E0140464946FFF799
:10491000FBF90022CDE91401DDE90E01564BFFF74A
:1049200041FA0022554BFFF7EFF902460B46DDE94D
:104930000E01FFF737FA0022514BFFF7E5F9024667
:104940000B46DDE90E01FFF72DFA42464B46804645
:10495000894600204FF08041FFF7EAF902460B46F6
:1049600040464946FFF7D0F902460B46DDE91401FF
:10497000FFF718FA0022434BFFF7C6F9129B0022FB
:1049800003F2FF3C4FEA0C53FFF7E6F980468946F5
:10499000DDE90A0142464B46CDE90E89FFF7CAFA26
:1049A00068BB4346494607F16302C62A119A8CBF89
:1049B0004FF005094FF00409002A3FF49FAE0B4366
:1049C0003FF48EAEDDE90A0123A3D3E90023FFF70C
:1049D000D9FA48B1DDE90A0121A3D3E90023FFF7A1
:1049E000A9FA00287FF47CAEBAF1000F3FF486AE3E
:1049F000139B002B3FF482AE0AF1FF3A7EE60022C1
:104A00001E4B40464946FFF7CDF90A46014603468C
:104A1000CDE90E12013F1146C5E79FED137B174606
:104A20004FF004098DED0E7B68E608F100430A970C
:104A30000B933CE6AFF3008061436F63A787D23FDF
:104A400071A379094F930A401655B5BBB16B02406B
:104A5000EF39FAFE422EE63F2D431CEBE2361A3FB9
:104A60000000000080842E410000000000000000D3
:104A70000000F83F0000E03F00002C400000244010
:104A8000000018400000F03FFB799F501344D33FD3
:104A9000B3C8608B288AC63F2DE9F04F97B0DDE997
:104AA0002089CDE90401DDE9224BCDE9062340460A
:104AB00042464B464946DDF890A0FFF717FA00281A
:104AC00040F0C581404649464FF0FF326FF48013F5
:104AD000FFF730FA002840F01D81404649464FF06C
:104AE000FF32C14BFFF762FA002840F0E380B8A321
:104AF000D3E9002340464946FFF758FA002840F022
:104B0000CB80B5A3D3E9002340464946FFF712FA0C
:104B1000002840F0C1804046494600220023FFF7AC
:104B200009FA002840F0E0801AF480650D9000F04A
:104B3000E980092C40F296810EAB1A460C93302185
:104B40000023A4F109050133202B02F8011BA4EB7B
:104B5000030600F03A81AB42F5D19FED9D7B8DEDD0
:104B6000087B49464046FFF79DF90446FFF776F972
:104B700002460B4640464946FFF7DAF8DDE90823CE
:104B8000FFF7EAF802460B46CDE90A23FFF79CF946
:104B90000746FFF775F902460B46DDE90A01FFF704
:104BA000C7F802460B46CDE90A2300228F4BFFF7D8
:104BB000FDF9002800F0DB8001373846FFF760F987
:104BC000DDE90823FFF7DEF908B100270134002EE4
:104BD00040F0B1802046FFF741F902460B464046BF
:104BE0004946FFF7A5F80022804B06460F46FFF71F
:104BF000A1F940B93046394600227C4BFFF7D6F97F
:104C0000002800F015810C9B691E7948194410E0BA
:104C100080FB0462C3EBA20303EB8302A4EB420418
:104C200004F1300201351C4601F8012F002B00F081
:104C3000AB80202D4FEAE473EAD10AF00303012B85
:104C40001CD1BBF1000F19D00D9B002B40F0F98057
:104C50001AF00C0F40F0F580AB4540F2D380202DC8
:104C60000BD030220C996B1E0B4401355D4503F8C7
:104C7000012F00F08D80202DF7D12025DDE90623BE
:104C8000DDE904010C9CCDE902BA01950094FFF71F
:104C900027FB17B0BDE8F08FCDE92089DDE90623B9
:104CA000DDE90401CDE923BA229417B0BDE8F04F45
:104CB000FFF7C2BC4F4DCDF88CA00AF0040ABAF140
:104CC000000F4D4C18BF2C46DDE90623DDE9040139
:104CD00020940CBF03240424CDF888B0219417B08D
:104CE000BDE8F04FFFF7FCBA4B46424600200021DA
:104CF000FFF71EF801231AF48065804689460D935C
:104D00007FF417AF9FED367B0EAB06268DED087B4B
:104D10000C9326E70424DDE90623DDE90401374D81
:104D2000CDF88CA0CDF888B02095219417B0BDE8BF
:104D3000F04FFFF7D5BA0C9B681EDFF8C4C01844CB
:104D40000DE0ACFB0721C90801EB8102A7EB420291
:104D50003032092F00F8012F27D90F461D46202D8C
:104D600005F1010306F1FF36EBD120254BE70022C8
:104D7000DDE90A011D4BFFF7DDF800287FF427AFBE
:104D8000002F5AD1013722E70AF00303012B75D017
:104D9000202D3FF473AF0D9BBBB32D2205F15803BB
:104DA0006B4403F8202C013568E7202BDDD0AEB32F
:104DB0000C9A1E441544302201E0B3422ED0013338
:104DC000202B05F8012FF8D1CFE71D46C5E600BF1F
:104DD0000000000065CDCD410000000065CDCDC1D3
:104DE0000000000080842E41FFFFEF7F0000E03FC5
:104DF0006766666634B701103CB7011044B701100E
:104E0000CDCCCCCC202D3FF439AF1AF0040F0DD10E
:104E10001AF0080F3FF432AF2022BFE72E2103F132
:104E200058026A4402F8201C5D1CECE62B22B5E710
:104E3000E3077FF5E8AE0134E5E6FA077FF5C7AE94
:104E4000A0E70BF1FF3BAB453FF609AFA0E703241A
:104E5000DDE90623DDE904010A4DCDF88CA0CDF88B
:104E600088B061E7084B264603EBC40393ED007B53
:104E70000EAB8DED087B00250C9372E6BBF1000FA5
:104E800086D0E1E640B7011050C001102DE9F04F87
:104E90009A469BB0249C964D0B94964C0B1E18BFC3
:104EA000834625609AF80000934C0A9308BFA346F6
:104EB0000992002800F0BC824FF000090AE04A463F
:104EC000099B0A9909F10109D8479AF800000028BE
:104ED00000F0CE8025280AF1010AF0D100235246C5
:104EE00012F8010BA0F1200110290AD8DFE801F027
:104EF0004009093C0909090909090938093409095E
:104F00003000A0F13001092940F28C802A2800F0FD
:104F1000F58000210C912E2800F099800027A0F147
:104F2000680112292DD8DFE811F057012C0051013A
:104F30002C0045012C002C002C002C002C002C00F7
:104F40002C0027002C002C002C002C002C0027000B
:104F5000924643F00103C2E7924643F00203BEE7E4
:104F6000924643F00403BAE7924643F01003B6E7D3
:104F7000924643F00803B2E79AF8010043F48073C5
:104F800001326728924600F28280242840F2C680CF
:104F9000A0F12502422A00F2C180DFE812F05F0191
:104FA000BF00BF00BF00BF00BF00BF00BF00BF0009
:104FB000BF00BF00BF00BF00BF00BF00BF00BF00F9
:104FC000BF00BF00BF00BF00BF00BF00BF00BF00E9
:104FD000BF00BF00BF00BF00BF00BF00BF00260171
:104FE00045012601BF00BF00BF00BF00BF00BF00DA
:104FF000BF00BF00BF00BF00BF00BF00BF00BF00B9
:10500000BF00BF00D301BF00BF00BF00BF00BF0093
:10501000BF00BF00BF00BF00D3016701D30126015D
:1050200045012601002100E0013201EB810100EB86
:10503000410110789246A0F13004092CA1F1300111
:10504000F2D92E280C9102F101027FF467AF9AF891
:1050500001001146A0F13006092E43F4806340F2AE
:1050600031812A2800F03E8192460027013256E71E
:105070004C46099B994501D303F1FF394A4600206C
:10508000099B0A99D84720461BB0BDE8F08FA0F1D4
:105090006902D2B20F2A41D8012649F24101964055
:1050A0000E4040F001810A2A3FD0072A36D10B9CDE
:1050B00054F8042B002A00F0288143F021010DF15F
:1050C000480E704603E0202E00F029811A4602F0B7
:1050D0000F052B46092D94BF303337330F2A00F8C4
:1050E000013B06F101064FEA1213ECD817E100BFAD
:1050F0008D4E0010F84A0020DD4200100B9C9AF8FB
:10510000010054F8045B9246002DBDBF694243F094
:1051100002030C910C950B940132FCE64A46099B64
:105120000A9909F10109D847CFE60B9951F8048B88
:1051300098F800201046002F40F0E18072B16FF027
:10514000010C0CF1010C4646C44401E0664503D055
:1051500016F8014F002CF9D1A6EB080613F4806C69
:1051600002D0BE4228BF3E4613F0020400F0878101
:10517000002A00F02B81BCF1000F00F041810B945C
:105180000D964A46DDE909540E464F4408E02B4689
:105190002146D84718F8010F09F1010910B14A4614
:1051A0004F45F4D131460B9C0D9E002C40F00E81F2
:1051B0000B918AE69AF801006C287FF4DFAE9AF82A
:1051C000020043F440730AF10302DAE69AF80100A0
:1051D00043F400730132D4E69AF80100682800F025
:1051E000208143F080030132CBE6672800F0E7809E
:1051F000472800F00081452800F0FF800B9C0493B5
:105200000C9B0734CDE9027324F007031C46DDE94B
:105210000931F4E802674A465846CDE900670B9425
:10522000FFF70AFA814650E646280B9C08BF43F078
:10523000200304930C9B0734CDE9027324F0070389
:105240001C46DDE90931F4E802674A465846CDE9D3
:1052500000670B94FFF720FC814636E64A4625207E
:10526000099B0A9909F10109D8472EE60B9A9C0778
:1052700002F1040709F1010640F1E6801078099B6C
:105280004A460A99D8470C9B012B40F22C81DDE954
:105290000954994432462B46214620200136D847EE
:1052A0004E45F7D10B9710E66F2800F08B8040F247
:1052B0006581782800F008814FF00A0823F0100378
:1052C000C44647E0002707EB870700EB4700A0F143
:1052D000300711F8010FA0F13002092AF3D98A46EC
:1052E0004A1C1CE60B9C9AF8020054F8047B0AF155
:1052F000020A0AF101020B9427EAE7770FE6002A77
:105300003FF42CAF07F1FF3C1BE723F0100113F42F
:10531000806241F021013FF4D2AE0DF1480E082326
:105320001020059300234A46CDE9023006915846E5
:10533000DDE90931CDE900E60497FFF71FF80B948A
:105340008146C2E5582879D0622840F051824FF05A
:105350000208C44613F480606DD123F00C0313F4EB
:10536000007240F0C2800B9904310D9113F48071EA
:1053700040F02E825E060B9A40F1AA801278002A35
:1053800040F0DA8023F01003002800F0D5801146A9
:105390000DF1480E06930C9BCDF80CC0CDE90473BB
:1053A000019100234A4602935846DDE90931CDF8C0
:1053B00000E0FEF7E3FF0D9B81460B9385E543F488
:1053C00000631BE74FF00808C446C3E70C9B4C463C
:1053D000B3427FF6EDAE0F464B44A3EB0609DDE981
:1053E000096522463346294620200134D8474C45DA
:1053F000F7D13946DCE643F4006343F02003FDE6D1
:105400000F460B94DDE909544A462B462146D847FE
:1054100018F8010F09F101090028F5D139460B9C54
:10542000C3E69AF8020043F0C0030AF10302A8E5BC
:10543000044681461DE623F00D0390E74FF0100867
:1054400043F02003C44685E70C9B012B45D9DDE9D9
:1054500009544E4609F1FF38984432462B462146FE
:1054600020200136D8474645F7D10C9B3246994457
:105470000B9B1878DDE90931D8470B9725E50C9B84
:10548000B34240F2EE81CDE90D48DDE9095488468A
:105490004B449E1BCDF82CC04A462B46214620206B
:1054A00009F10109D847B145F6D14146DDF8388008
:1054B0000C9BDDF82CC00D9C98F800205E1C10465B
:1054C000002A7FF458AE73E64FF01008C44641E757
:1054D0001D064CBF1288126851E713464A461878D9
:1054E000DDE90931D847B146DCE60B9C073424F0EE
:1054F00007042246656852F8084B0B9254EA0502ED
:1055000040F02C8123F01003002800F027810026B2
:105510000DF1480E06930C9B4A46CDE90473002317
:10552000CDE900E6CDF80CC002935846DDE909311B
:10553000FEF724FF8146C8E413F0200F14BF41207A
:1055400061200DF1480E7646A0F10A0803E02029FB
:105550003FF420AF2246B2FBFCF40CFB1425E8B26A
:10556000092D00F130058ABF4044E8B2C0B262455F
:1055700006F8010B01F10101E9D20BE723F010025B
:1055800069280D9240F06F8113F4806204D04FF4CB
:10559000806223F011030D930D9B13F4007640D12C
:1055A0000B9B03F104080D9B13F4807040F098806E
:1055B000590640F1C6800B9B19780C46CB0F002989
:1055C00000F0B98022460DF1480E74461646DFF809
:1055D000A0C201E020280FD03546ACFB0621C90847
:1055E00001EB8102A6EB42023032092D0E4600F19A
:1055F000010004F8012BEDD80D9ACDE901030692C4
:105600000C9ACDE904720A234A4603935846DDE911
:105610000931CDF800E0FEF7B1FECDF82C808146CF
:1056200053E40B9C073424F00704214608466368C2
:1056300050F8081BDC0F0B9051EA030000F0C38008
:105640000A46191E48DB13460DF1480EF4460026A3
:10565000CDE90E94DFF8188201E0202E2DD05A18E3
:1056600042F10002A8FB025929F0030505EB990558
:10567000521B1C469B1A61F1000508464FF0CC31C5
:1056800001FB03F108FB0511A3FB08531944052393
:1056900005F00109A9FB03399B180A2C03F130031B
:1056A0004FEA550570F100000CF8013B06F10106C8
:1056B00045EAC1734FEA5101CFD2DDE90E940D9B4B
:1056C0004A4606930C9BCDE90164CDE904730A2395
:1056D000CDF800E0039328E7524261EB4101B2E7C5
:1056E0000B9B1968CB0F002900F0AB8081EAE172B7
:1056F000A2EBE1720DF1480E7046DFF874C101E0D3
:10570000202E10D01546ACFB0241C90801EB8104E4
:10571000A2EB440404F13002092D00F8012B06F13C
:1057200001060A46ECD80D9ACDE9016306920C9A5F
:10573000CDE9047267E7002A3FF445AF0DF1480E4A
:105740005AE713F0800F0B9B00F08180B3F9001033
:1057500081EAE174A4EBE174A4B22FE713F0200F07
:1057600014BF412261220DF1480E0A3ACDE90D978E
:10577000CDF844B000267746F3469146CDE90F3C7C
:1057800003E0202E17D004460D462946424600234A
:10579000204615F091FAD2B2092A02F1300388BFEF
:1057A00002EB09034445DBB275F1000507F8013B44
:1057B00006F10106E5D2DE46DDE90D97DDE90F3C95
:1057C000DDF844B0A6E6002A47D1134611463BE770
:1057D0000B990968A1B923F0100388B10DF1480EA7
:1057E00006930C9BCDF80CC0CDE904730192D8E56B
:1057F00013F480627FF4CBAE23F010030D93CBE65D
:1058000013F0200F14BF412061200DF1480E7646A1
:10581000A0F10A0802E0202AE2D02146B1FBFCF404
:105820000CFB1415E8B2092D00F130058ABF404485
:10583000E8B2C0B2614506F8010B02F10102EAD2FA
:10584000CEE7002A3FF456AF0DF1480E6BE719681A
:1058500081EAE174A4EBE174B0E600260DF1480E94
:105860002DE701362BE64FF00A081346C44671E5D2
:10587000CDCCCCCC84460CB410B584B006AC54F876
:10588000043B0A460094614604480394FFF7FEFA7D
:1058900004B0BDE8104002B0704700BFD542001010
:1058A00030B594468E4605461C4683B0294672465E
:1058B000634600940248FFF7E9FA03B030BD00BF29
:1058C000D542001070B594461E4605460C4684B07D
:1058D0004FF0FF32634602A900960348CDE9025417
:1058E000FFF7D4FA04B070BD294600100FB410B50C
:1058F0000E4B84B006A91C6851F8043B03915CB1BF
:1059000000914FF0FF3202A90948A047012004B0DE
:10591000BDE8104004B07047184600F033FA204646
:1059200004B0BDE8104004B0704700BFF84A002042
:105930002146001010B5094B84B01C684CB10346D9
:1059400000914FF0FF3203A90548A047012004B0A1
:1059500010BD00F017FA204604B010BDF84A002030
:105960002146001000BEFDE7074A0346106838B123
:10597000064903448B428CBF4FF0FF3013607047E1
:10598000034908461160F3E7E046002000000820C4
:10599000884D0020002070474FF0FF30704700BF57
:1059A00003460846114623B9034BD3E9002300F010
:1059B0004FB94FF0FF307047F0BF0110431E012B6D
:1059C00009D810B51446084601230022214600F0EC
:1059D000C7F8204610BD4FF0FF3070474FF0FF3042
:1059E000704700BF4FF0FF30704700BF08B5FFF7AA
:1059F000B9FF00BF9C46144600B50B4602466146FF
:105A000083B044B1054D064801940095FFF76EFF41
:105A10000120FFF7A7FF034D2C46F4E74CB7011018
:105A20005CB70110ECAD011038B5064C064DFEF721
:105A30004FF8AC4204D254F8043B9847AC42FAD336
:105A400038BD00BF80AD011098AD01100368084655
:105A500011461847437D2DE9F04781460F4616460B
:105A6000002B43D0002A3BDD037D00204D1E014664
:105A700015F8012FDFF884800A2A01F101040ED005
:105A8000A6421CD02B782146A3F10D03B3FA83F371
:105A900015F8012F5B090A2A01F10104F0D1002B4E
:105AA000EED18142A1EB000138441BDC02214046CB
:105AB000D9F800309847A64208D02046E2E786424F
:105AC00004DD311AD9F8003038449847374417F8C4
:105AD000013CA3F10D03B3FA83F35B0989F8143099
